:100000000C945D000C9485000C9485000C94AD104C
:100010000C94AD100C94AD100C9485000C948500DC
:100020000C9485000C9485000C9485000C94D611DA
:100030000C9485000C9485000C9485000C9485002C
:100040000C940B100C9485000C947B100C945510A0
:100050000C9485000C9485000C9485000C9485000C
:100060000C94B7100C9485000000000024002700B9
:100070002A0000000000250028002B0004040404CE
:100080000404040402020202020203030303030342
:10009000010204081020408001020408102001021F
:1000A00004081020000000080002010000030407FB
:1000B0000000000000000000921211241FBECFEFCC
:1000C000D8E0DEBFCDBF11E0A0E0B1E0E4E4F2E3B0
:1000D00002C005900D92AE3EB107D9F725E0AEEE15
:1000E000B1E001C01D92AF31B207E1F710E0CDE5FC
:1000F000D0E004C02197FE010E94E617CC35D1075D
:10010000C9F70E94A6130C9420190C940000862FA6
:10011000E091D002F091D102309711F0BA01099428
:100120000895862FE091CE02F091CF02309711F022
:10013000BA0109940895862FE091CC02F091CD0286
:10014000309711F0BA0109940895862FE091CA0200
:10015000F091CB02309711F0BA0109940895862FDF
:10016000E091C802F091C902309711F0BA010994E8
:100170000895862FE091C602F091C702309711F0E2
:10018000BA01099408950895862F642FE091D20250
:10019000F091D302309711F0A90109940895E091EC
:1001A000D402F091D502309709F009940895CF93C5
:1001B000DF93FC01A081B181109701F1EC01ED9179
:1001C000FC9111970190F081E02D69EFCD01099527
:1001D00088819981DC01ED91FC910190F081E02D05
:1001E00062E0099588819981DC01ED91FC91019093
:1001F000F081E02D65E0DF91CF910994DF91CF91FF
:100200000895A0917E04B0917F04ED91FC91119727
:100210000190F081E02D682FCD0109941F93CF93B9
:10022000DF93182FEB0180914504909146046817E5
:10023000790760F48091430490914404C80FD91F5A
:10024000188380E0DF91CF911F910895E0917204AF
:10025000F0917304309711F481E0F4CF81E0809342
:10026000420480915E0490915F0409958091450459
:1002700090914604C817D90778F7DCCFCF93DF9366
:10028000EC01FB0130E020E0C901880F991F8C17B9
:100290009D0778F44081DB014D93BD011197918159
:1002A000979599279795942B9C932F5F3F4F329664
:1002B000EBCFC901DF91CF91089590E0FC01EC559F
:1002C000FF4F2491FC01E057FF4F3491FC01E458AB
:1002D000FF4FE491EE23C9F0222339F0233001F1DE
:1002E000A8F4213019F1223029F1F0E0EE0FFF1FC0
:1002F000EE58FF4FA591B4918FB7F894EC9161112E
:1003000026C030953E233C938FBF08952730A9F037
:100310002830C9F0243049F7809180008F7D03C0D8
:10032000809180008F7780938000DFCF84B58F77B6
:1003300084BDDBCF84B58F7DFBCF8091B0008F77FC
:100340008093B000D2CF8091B0008F7DF9CF3E2B4B
:10035000DACFCF93DF9390E0FC01E057FF4F249179
:1003600084589F4FFC0184918823C9F090E0880F46
:10037000991FFC01E859FF4FA591B491FC01EE587B
:10038000FF4FC591D49161110DC09FB7F8948C9126
:10039000209582238C938881282328839FBFDF9117
:1003A000CF910895623051F49FB7F8943C91822F19
:1003B000809583238C93E8812E2BEFCF8FB7F89411
:1003C000EC912E2B2C938FBFEACF8E3008F08E50FD
:1003D0008770806480937C0080917A008064809331
:1003E0007A0080917A0086FDFCCF80917800909110
:1003F000790008953FB7F89480910F03909110030E
:10040000A0911103B091120326B5A89B05C02F3F00
:1004100019F00196A11DB11D3FBFBA2FA92F982F2A
:100420008827BC01CD01620F711D811D911D42E025
:10043000660F771F881F991F4A95D1F708958F92ED
:100440009F92AF92BF92CF92DF92EF92FF926B0199
:100450007C010E94FA014B015C01C114D104E1044A
:10046000F104B9F00E94FA01681979098A099B0917
:10047000683E73408105910580F321E0C21AD108DE
:10048000E108F10888EE880E83E0981EA11CB11CDB
:10049000E4CFFF90EF90DF90CF90BF90AF909F9010
:1004A0008F900895009721F0805C9F4F0C94D700A7
:1004B0000895AF92BF92CF92DF92EF92FF920F9387
:1004C0001F93CF93DF936C017B018B01040F151FEA
:1004D000EB015E01AE18BF08C017D10759F0699152
:1004E000D601ED91FC910190F081E02DC6010995B6
:1004F000892B79F7C501DF91CF911F910F91FF9063
:10050000EF90DF90CF90BF90AF900895FC01538D96
:10051000448D252F30E0842F90E0821B930B5417DD
:1005200010F0CF96089501970895FC01918D828D6A
:10053000981761F0A28DAE0FBF2FB11D5D968C9103
:10054000928D9F5F9F73928F90E008958FEF9FEF42
:100550000895FC01918D828D981731F0828DE80FFE
:10056000F11D858D90E008958FEF9FEF0895FC01B8
:10057000918D228D892F90E0805C9F4F821B910985
:100580008F739927089583E693E00E94B70221E0D4
:10059000892B09F420E0822F089580E090E0892BD8
:1005A00029F00E94C30281110C9400000895FC01FF
:1005B000A48DA80FB92FB11DA35ABF4F2C91848DC4
:1005C00090E001968F739927848FA689B7892C9321
:1005D000A089B1898C91837080648C93938D848D74
:1005E000981306C00288F389E02D80818F7D808377
:1005F0000895EF92FF920F931F93CF93DF93EC0137
:1006000081E0888F9B8D8C8D98131AC0E889F989B9
:10061000808185FF15C09FB7F894EE89FF896083BC
:10062000E889F98980818370806480839FBF81E03D
:1006300090E0DF91CF911F910F91FF90EF9008957F
:10064000F62E0B8D10E00F5F1F4F0F731127E02E5A
:100650008C8D8E110CC00FB607FCFACFE889F98992
:10066000808185FFF5CFCE010E94D702F1CFEB8DBF
:10067000EC0FFD2FF11DE35AFF4FF0829FB7F89466
:100680000B8FEA89FB8980818062CFCFCF93DF9384
:10069000EC01888D8823B9F0AA89BB89E889F9899A
:1006A0008C9185FD03C0808186FD0DC00FB607FCCF
:1006B000F7CF8C9185FFF2CF808185FFEDCFCE0102
:1006C0000E94D702E9CFDF91CF9108955F926F9298
:1006D0007F928F929F92AF92BF92CF92DF92EF92D2
:1006E000FF920F931F93CF93DF935C016901DA01AF
:1006F0005C90232B19F4CC24CA94DC2C8A013A0197
:10070000660E771ED0E0C0E0F12CE12C87E0882E49
:10071000912CF50180819181D8016C910C2E01C042
:10072000660F0A94EAF765296F77DC01ED91FC9179
:100730000190F081E02D0995BFEFEB1AFB0AF8015B
:10074000608170E0C4018C1B9D0B02C0759567959C
:100750008A95E2F7562E2196C730D10558F1CE146E
:10076000DF0441F1D5018D919C91652D6F77DC01FE
:10077000ED91FC910190F081E02D0995BFEFEB1A0E
:10078000FB0A551C5524551C2797E6CFEC14FD0495
:1007900008F4BFCFDF91CF911F910F91FF90EF90A1
:1007A000DF90CF90BF90AF909F908F907F906F9091
:1007B0005F9008950F5F1F4F6016710639F72097FD
:1007C00049F3EC14FD0430F7F5018081918161E07B
:1007D00070E001C0660FCA95EAF761506521DC013F
:1007E000ED91FC910190F081E02DDF91CF911F916F
:1007F0000F91FF90EF90DF90CF90BF90AF909F90C0
:100800008F907F906F905F9009941F93CF93DF93A9
:1008100000D0CDB7DEB7182F7A836983809140046A
:10082000909141040097C9F0DC01ED91FC91019099
:10083000F081E02D1031B8F461157044A0F4612FFF
:10084000606E099522E030E0AE014F5F5F4F62E0DD
:1008500070E080E494E00E9466030F900F90DF91B7
:10086000CF911F91089560EF099580914004909178
:100870004104DC01ED91FC910190F081E02D6FE6E7
:1008800009958091400490914104DC01ED91FC9127
:100890000190F081E02D612F099522E030E0AE015A
:1008A0004F5F5F4F62E070E080E494E00E94660377
:1008B0008091400490914104DC01ED91FC91019004
:1008C000F081E02D67EF0995C8CFEF92FF920F936B
:1008D0001F93CF93DF93C82F8091400490914104E0
:1008E0000097C9F17A018B01DC01ED91FC91019037
:1008F000F081E02D60EF09958091400490914104D2
:10090000DC01ED91FC910190F081E02D6C2F0995B7
:10091000E7010E0D1F1DC017D10759F030E020E090
:10092000AE0161E070E080E494E00E9466032196ED
:10093000F2CF8091400490914104DC01ED91FC9153
:100940000190F081E02D67EFDF91CF911F910F9122
:10095000FF90EF900994DF91CF911F910F91FF903D
:10096000EF900895CF92DF92EF92FF920F931F9333
:10097000CF93DF93FC01E058FF4FE080EE2009F4B5
:100980005CC0EC01C05CDF4FA881B981109709F40D
:1009900054C0FC01EF57FF4FC080D180F601118198
:1009A0000081ED91FC9111970190F081E02D60EFB5
:1009B000CD01099588819981DC01ED91FC9101902F
:1009C000F081E02D69E7099588819981DC01ED913D
:1009D000FC910190F081E02D602F0995888199812B
:1009E000DC01ED91FC910190F081E02D612F0995E2
:1009F000F12C01E010E00F5F1F4FE016F10659F0F7
:100A000030E020E0A601400F511F61E070E0CE0110
:100A10000E946603F0CF88819981DC01ED91FC9101
:100A20000190F081E02D67EFDF91CF911F910F9141
:100A3000FF90EF90DF90CF900994DF91CF911F91BD
:100A40000F91FF90EF90DF90CF900895009711F0F5
:100A50000C94B204089520919F02260F3327331F70
:100A600021323105ECF420913903FC0190E080E063
:100A7000243069F082E00895A0919F022191AC0199
:100A800043585D4FA40FB52FB11D2C9301968617C7
:100A900098F380919F02680F60939F0280E0089511
:100AA00081E008951092390381E080933803109219
:100AB000130361E082E10E945D0161E083E10E9435
:100AC0005D01E9EBF0E080818E7F808380818D7F06
:100AD000808388E48093B80085E48093BC00089507
:100AE000CF93DF9391E090937C028823B9F0C0917B
:100AF000B800D091BA008091BC008A7B8093BC0082
:100B000060E082E10E945D0160E083E10E945D019E
:100B10000E945205D093BA00C093B800DF91CF91E4
:100B200008958F929F92AF92BF92CF92DF92EF92F1
:100B3000FF920F931F93CF93DF93D0916203D13233
:100B400008F0D7C0182FC09161030E94FA016B0111
:100B50007C018091390381116BC082E0809339035D
:100B6000109338038FEF8093370310923603D0939E
:100B70003503A1E4B3E0E5E1F3E080E0D81391C0F0
:100B80001092140380911403CC0FC82BC09314034C
:100B900080911303813009F088C0109213030E94E2
:100BA000FA016B017C01809114038093BB0080915A
:100BB0003B0390913C03A0913D03B0913E03892BF0
:100BC0008A2B8B2BA1F00E94FA0100913B0310911C
:100BD0003C0320913D0330913E036C197D098E0941
:100BE0009F09061717072807390708F442C08091A4
:100BF000BC0083FDD8CF85EC8093BC000E94FA0135
:100C00006B017C0180913903823009F450C08091DE
:100C100037038F3F09F46FC080913703803209F4A6
:100C20006CC080913703803309F469C084E026C02A
:100C300080913B0390913C03A0913D03B0913E0312
:100C4000892B8A2B8B2B09F484CF0E94FA01809088
:100C50003B0390903C03A0903D03B0903E036C1981
:100C60007D098E099F0986169706A806B90608F021
:100C700070CF80913A030E94700585E01092400386
:100C80001092620310923F03DF91CF911F910F9159
:100C9000FF90EF90DF90CF90BF90AF909F908F909C
:100CA00008959D9191938F5F69CF85EEA5CF809137
:100CB0003B0390913C03A0913D03B0913E03892BEF
:100CC0008A2B8B2B09F49ECF0E94FA0100913B03E3
:100CD00010913C0320913D0330913E036C197D0936
:100CE0008E099F09061717072807390708F08ACFCA
:100CF000C0CF81E0C3CF80E0C1CF82E0BFCF83E02F
:100D0000BDCF089508950895E0917B0280917A0205
:100D1000E81730F4F0E0E65AFD4F808190E0089546
:100D20008FEF9FEF089590917B0280917A022FEFD1
:100D30003FEF981748F4E92FF0E0E65AFD4F208185
:100D400030E09F5F90937B02C901089580917A0201
:100D500090917B02891B990B0895CF92DF92EF92BD
:100D6000FF920F931F93CF93DF937C01CB018A01F6
:100D700020913F03222389F0EB016B01C40ED51EA5
:100D8000CC15DD0569F06991D701ED91FC910190D9
:100D9000F081E02DC7010995F3CF642F0E942B0548
:100DA000C801DF91CF911F910F91FF90EF90DF90DD
:100DB000CF900895CF93DF931F92CDB7DEB76983AD
:100DC00020913F032223F9F020916203203258F052
:100DD00021E030E0FC013383228390E080E00F903B
:100DE000DF91CF91089580914003E82FF0E0EF5B11
:100DF000FC4F998190838F5F8093400380936203BF
:100E000081E090E0ECCF61E0CE0101960E942B05DD
:100E1000F7CF90E080E00895DF92EF92FF920F937A
:100E20001F93CF93DF93EC01D62E7A01890188813D
:100E30008C3008F067C061E08D2D0E94A901888187
:100E4000282F30E0F901EE0FFF1FE20FF31FEE52E3
:100E5000FB4F9D2D9F736081607C692B608320E236
:100E600032E02E193F0937FF02C02D5F3F4F359505
:100E7000279535952795298320E639E0201B310BEE
:100E800037FF02C02D5F3F4F359527953595279544
:100E90002A832CE0622F0E94DA17829FB00111246E
:100EA00030E020E0AB01420F531FFA01EE0FFF1FAD
:100EB000E40FF51FEE52FB4F908196FD16C02F5F99
:100EC0003F4F2C30310571F781110FC01092800017
:100ED00082E0809381001092850010928400B19A84
:100EE00080916F00826080936F00E8818E2F90E088
:100EF000FC01EE0FFF1FE80FF91FEE52FB4F808140
:100F0000806480838881DF91CF911F910F91FF9042
:100F1000EF90DF900895CF938830B0F421E030E077
:100F2000082E02C0220F331F0A94E2F740910403F7
:100F300050910503672B51F42095309524233523D8
:100F40003093050320930403CF910895242B352B70
:100F50003093050320930403909158029111F4CF2C
:100F6000C82F0E94E501BC018C2FCF910C94050481
:100F70005F926F927F928F929F92AF92BF92CF9229
:100F8000DF92EF92FF920F931F93CF93DF93833003
:100F900008F061C0D1E0D80FDD0FDD0FDD0F5D2E51
:100FA000D73110F046E1542EC62F082FD8508D2E81
:100FB000912CC401880F991F9C0120503C4F59016E
:100FC000D12CC12C10E077247394D515C8F58EEF81
:100FD0008D0F8231F8F4F601E80DF91DED57FB4F46
:100FE00090819230B8F48C2F87216624639481110C
:100FF00001C0612C7601EE0CFF1C913089F4172999
:1010000039E9E30EF11CF501EE0DFF1D862D90E090
:1010100091838083770CDF5F8FEFC81AD80AD5CF12
:10102000882371F3F701E756FF4FEA0DFB1D80811E
:101030009181019729F362E08D2F0E94A901E0CFF1
:10104000011119C0F8948BB16C2F68276C7F612354
:1010500068276BB97894DF91CF911F910F91FF9022
:10106000EF90DF90CF90BF90AF909F908F907F9048
:101070006F905F9008950130D1F4C123F89495B139
:10108000812F8F73809589239C2F9F73892B85B91E
:1010900088B1612F62956695669563706095682347
:1010A000C295C695C695C370C62BC8B9D3CF1F705D
:1010B000F89498B1812F880F880F80958923C123D8
:1010C000CC0FCC0FC82BF1CF8F929F92AF92BF92D3
:1010D000CF92DF92EF92FF920F931F93CF93DF9304
:1010E000EB01863108F098C0082F10E0F801ED57A9
:1010F000FB4F9081933009F49CC0943009F08CC070
:101100008250823108F081C0F801E25CFD4FC0805E
:10111000D12C7601EE0CFF1C4B01603282E0780787
:101120000CF03EC0F701EC0DFD1DE950FB4F818135
:10113000A8E88A2E912C881A910887FD9394880C30
:10114000991C880C991C092C000CAA08BB088281E8
:1011500028E532E0281B310987FD3395220F331F24
:10116000220F331F032E000C440B550B281939098D
:101170004A095B09DB01653B710514F0A4EBB0E0A3
:10118000B7FF02C0B0E0A0E00E94A11724EB30E05E
:1011900040E050E00E947717820E931EA41EB51EF9
:1011A000F701EC0DFD1DE950FB4F20812C3068F557
:1011B000318188E890E0831B910937FD9395880F72
:1011C000991F880F991F881699067CF0328188E54F
:1011D00092E0831B910937FD9395880F991F880F23
:1011E000991F881699060CF4C4010297880F991F5D
:1011F0004FB7F89430E0F901EE0FFF1FE20FF31F35
:10120000EE52FB4F928381834FBF000F111FF801F5
:10121000E756FB4FD183C083DF91CF911F910F9190
:10122000FF90EF90DF90CF90BF90AF909F908F9006
:1012300008957B01D82F833041F08BEF800F8230EF
:1012400020F087EF800F833058F461E08D2F0E94EB
:10125000A901E114F10461F460E08D2F0E945D01A9
:10126000000F111FF801E756FB4FF182E082D4CF47
:101270008FEFE816F10411F461E0EFCFF801EC55BF
:10128000FF4FE491E33021F148F4E130B9F0E2306E
:10129000D1F080E8E816F1047CF7DECFE73011F1F9
:1012A000E83041F1E430A9F78091800080628093BA
:1012B0008000F0928B00E0928A00D2CF84B58068E3
:1012C00084BDE7BCCDCF84B5806284BDE8BCC8CF07
:1012D00080918000806880938000F0928900E09285
:1012E0008800BECF8091B00080688093B000E0920B
:1012F000B300B6CF8091B00080628093B000E092DE
:10130000B400AECF9EEF980F923180F4E82FF0E05A
:10131000DF01AD57BB4F9C91913041F4EE0FFF1FA1
:10132000E756FB4F608371830C945D010895FF9233
:101330000F931F93CF93DF9300D0CDB7DEB7082F65
:1013400010E0F801EA52FD4F9081F62EF9220C5A76
:101350001D4F411104C0F80190819F1511F12F2DEF
:1013600030E03A832983A0914004B0914104109762
:10137000B1F0682F6F706069ED91FC911197019049
:10138000F081E02DCD01099522E030E0AE014F5F04
:101390005F4F62E070E080E494E00E946603F80131
:1013A000F0820F900F90DF91CF911F910F91FF90DE
:1013B0000895833040F5282F30E0F901E752FD4FC2
:1013C0006083672B01F12A523D4FF9016081811141
:1013D00006C099B19C7F692341E00C949709813044
:1013E00049F493B126B19F73F0E42F9F900111242B
:1013F000922BF1CF26B130E035952795359527957D
:101400002F706223E9CF0895A82FB0E0A25CBD4FF2
:101410009C91292F30E0F901EE0FFF1FE20FF31F1F
:10142000E950FB4FE0812E2F30E0F901EE0FFF1F56
:10143000E20FF31FEE52FB4F80818F7B8083809100
:101440003C02981308C0992319F0915090933C02E4
:101450008FEF8C9308958823D9F3E0913D02EF5FDD
:10146000E0933D02F0E0E351FE4F9083F1CFFC01A9
:1014700001900020E9F73197BF01681B790BAC019F
:1014800081E70C946504CF93DF93DB0190913C02DC
:101490009C3078F530913D02682F70E0FB01E25CF2
:1014A000FD4F3323E1F0C32FD0E0C351DE4F8881DD
:1014B0008083315030933D02808123E0829FC001C0
:1014C000112489509B4F1A161B0674F41416150626
:1014D0005CF49A01AD01DF91CF910C940C079083DD
:1014E0009F5F90933C02E8CF20E639E040E252E073
:1014F000F2CF8DE291E0DF91CF910C94370A85ED28
:101500008093BC0080913B0390913C03A0913D03EC
:10151000B0913E030796A11DB11D23E0B695A79596
:10152000979587952A95D1F72091BC0024FD03C09B
:1015300010923903089540913B0350913C03609110
:101540003D0370913E03452B462B472B69F30097D3
:10155000A105B10541F02AE22A95F1F700C00197F3
:10156000A109B109E1CF80913A030C9470059F92D3
:10157000AF92BF92CF92DF92EF92FF920F931F93A1
:10158000CF93DF93C82ED12CE601C050DC4FFE0173
:10159000ED57FF4F90819F3709F49FC0963061F45B
:1015A00090915702992341F06630710529F010920D
:1015B00057029FEF909300017B01182F0EEF080F49
:1015C000023108F564307105F1F0F601E25CFD4F7F
:1015D00080818C30C0F490E0FC01EE0FFF1FE80F1B
:1015E000F91FE950FB4FE0818E2F90E0FC01EE0FD8
:1015F000FF1FE80FF91FEE52FB4F808186FF03C0EB
:10160000812F0E94040A52EF952E910E87E08915D2
:1016100058F061E070E032E0E316F10411F070E0A0
:1016200060E0892D0E948B070231C8F4E12FE69516
:10163000E695E695F0E0EA52FD4F2081312F3770B4
:1016400081E090E001C0880F3A95EAF7E114F104D7
:1016500021F03BE0E316F10401F5822B8083560173
:10166000AA0CBB1CF501E756FB4F118210828CE0DF
:10167000E816F10408F0CBC0F701EF5BF44F0C94CF
:10168000E617610B8E0B500BA50BC40B070CFB0B65
:10169000070C070C070C6D0B790B80958223DECFAE
:1016A00037E03915D0F0023120F460E0812F0E943C
:1016B000A901CD57DF4F88818F3779F082E0888389
:1016C0000CC0023150F460E0812F0E94A901CD5777
:1016D000DF4F88818F3709F01882DF91CF911F91FA
:1016E0000F91FF90EF90DF90CF90BF90AF909F90C1
:1016F0000895023190F762E0812F0E94A901CD5731
:10170000DF4F88818F3711F08BE08883F501E75632
:10171000FB4F81E090E091838083DFCF0231E8F6D8
:10172000FE01ED57FF4F8081833021F460E0812F6F
:101730000E945D0161E0812F0E94A901CD57DF4F1A
:1017400088818F3751F281E0BACF133049F08BEFA7
:10175000810F823028F087EF810F833008F0BDCFF2
:1017600061E0812F0E94A90161E0812F0E94A901FF
:1017700060E0812F0E945D01CD57DF4F88818F3758
:1017800009F4ABCF83E09BCF023108F0A6CFCD5751
:10179000DF4F88818F3711F084E08883F601E25CA7
:1017A000FD4F80818F3FA9F090E0FC01EE0FFF1FFD
:1017B000E80FF91FE950FB4FE0818E2F90E0FC010C
:1017C000EE0FFF1FE80FF91FEE52FB4F808186FDE1
:1017D00084CF4FEF5FEF6FEF7FEF812FDF91CF91DE
:1017E0001F910F91FF90EF90DF90CF90BF90AF903F
:1017F0009F900C94430A1251123008F06ECFCD57CF
:10180000DF4F88818F3709F468CF86E058CF81E4B5
:1018100091E0DF91CF911F910F91FF90EF90DF90BA
:10182000CF90BF90AF909F900C94370A0F931F9367
:10183000CF93DF9381E080935802809157028823F1
:1018400029F0109257028FEF809300011092D90275
:101850001092D602109254021092DA021092D7021D
:10186000109255021092DB021092D802109256028A
:101870000EE312E0C0E0DFEF82EF8C0F62E070E079
:10188000883030F08EEF8C0F823128F461E070E008
:101890008C2F0E94B70AF801D1938F01CF5FC63118
:1018A00059F7109205031092040310923D02109212
:1018B0003C0210925802DF91CF911F910F91089531
:1018C0004F925F926F927F928F929F92AF92BF9250
:1018D000FF920F931F93CF93DF93F82E8B01D42F9A
:1018E000C22F6F3F760709F490C081E080933F03D9
:1018F000F0926103109240031092620386EC94E030
:101900000E94DA068C2F0E94910580913A029091F4
:101910003B028230910538F0880F991F880F991F7C
:1019200005970197F1F70E94FA014B015C01809144
:10193000390381116CC0CD2FD13208F0C0E281E0B3
:1019400080933903809338039FEF9093370310926D
:1019500036039C0F909335038093140390911403E6
:101960008F2D880F892B809314038091130381306E
:1019700009F0A1C0109213030E94FA014B015C010F
:10198000809114038093BB0080913B0390913C03B2
:10199000A0913D03B0913E03892B8A2B8B2BA1F0A4
:1019A0000E94FA0140903B0350903C0360903D033D
:1019B00070903E03681979098A099B0946165706F3
:1019C0006806790608F444C08091BC0083FDD8CF36
:1019D00085EC8093BC000E94FA014B015C01809170
:1019E0003903813009F469C0809136038C1710F4F3
:1019F000C0913603E5E1F3E0AAE5B2E080E08C17A0
:101A000061F191919D938F5FFACF00E08CCF80912F
:101A10003B0390913C03A0913D03B0913E03892B81
:101A20008A2B8B2B09F483CF0E94FA0140903B0351
:101A300050903C0360903D0370903E036819790913
:101A40008A099B09461657066806790608F06FCF83
:101A500080913A030E947005C0E010927B02C0930F
:101A60007A022D2F30E08C2F90E0281739070CF0E8
:101A700046C082E591E00E94370AF092FA01009395
:101A8000FB010AEF11E0AD2EB12CC8018A5F914035
:101A90008A159B050CF041C00F5F1F4F90917A0291
:101AA00080917B029817C9F186EC94E00E9493061E
:101AB000F8018183EACF85EE8CCF80913B03909132
:101AC0003C03A0913D03B0913E03892B8A2B8B2BC5
:101AD00009F485CF0E94FA0140903B0350903C03EB
:101AE00060903D0370903E03681979098A099B094B
:101AF000461657066806790608F071CFA9CF8217F7
:101B000093070CF0BACF8FE691E00E94370AD0918C
:101B10007A0280917B02D81BB0CFDE5F6D2F70E020
:101B20004AEF51E087E7DF91CF911F910F91FF902E
:101B3000BF90AF909F908F907F906F905F904F90ED
:101B40000C946504EF92FF920F931F93CF93DF9352
:101B50008956823108F033C0EA01162FE82FF0E0F1
:101B6000EC54F24F0C94E617FA0FDF0D610FDF0D06
:101B7000B90FDF0D3F0FE30EDF0DDF0DDF0DDF0DC2
:101B8000DF0DC60DDF0DA70EDF0D290F998195FF23
:101B90000AC08BE891E0DF91CF911F910F91FF90E8
:101BA000EF900C94370A888131E096FB222720F9C8
:101BB000232798719830D1F148F49923A9F0DF9147
:101BC000CF911F910F91FF90EF900895903109F4FC
:101BD0004CC09831A1F72091000112160CF472C08C
:101BE0008FEF80930001EBCF30933F03809361032D
:101BF000109240031092620302E0011778F4FE0194
:101C0000E00FF11D61816795662767958081680FF8
:101C100086EC94E00E94DA060E5FEFCF81E00E942E
:101C2000910583E191E00197F1F7C9CF9A814B814A
:101C30006630A1F430E8439FB0011124690F711D93
:101C40004D814795442747959C81490FDF91CF915E
:101C50001F910F91FF90EF900C94600C47954427D3
:101C60004795490F6FEF7FEFF1CFE0910001E7302B
:101C70001CF08BEA91E08FCF3A819B816630D9F4DA
:101C800060E8969FA0011124430F511D9D819795F7
:101C9000992797953C81930FEF5FE093000135E022
:101CA000E302F0011124E452FD4F8083528341830B
:101CB0009383248384CF979599279795930F4FEF1C
:101CC0005FEFEACF90E0622F022E000C770B35E039
:101CD000492F50E06417750764F0349FF001359F79
:101CE000F00D1124E452FD4F4081481719F09F5F19
:101CF000EFCF90E085E0492F50E0641775071CF1A5
:101D00009830F8F4FA0131968E9FD0018F9FB00D74
:101D10001124A452BD4F3C91849FF001859FF00D8A
:101D20001124E452FD4F308311964D915C9112972E
:101D30005283418313963C911397338314963C91BD
:101D400034839F5FD8CF21502093000138CF623079
:101D500078F0898160E8869F900111248881820F44
:101D6000932F911D009721F090933B0280933A02AC
:101D700080915702811123CFC0E08EEE8C0F82300C
:101D800028F466E070E08C2F0E94B70ACF5FC6315E
:101D9000A1F781E08093570210927B0210927A02A1
:101DA00010924003109262030E94520581E896E06F
:101DB00090939E0280939D0282E896E09093A20207
:101DC0008093A102FCCE653008F4F9CE18818EEF25
:101DD000810F823108F0F3CE0981EA80FB80CC814B
:101DE000E12FF0E0E25CFD4F80818C30C0F490E0A8
:101DF000FC01EE0FFF1FE80FF91FE950FB4FE081D8
:101E00008E2F90E0FC01EE0FFF1FE80FF91FEE523E
:101E1000FB4F808186FF03C0812F0E94040A80E867
:101E2000C89FA00111244F0D511D90E8E99EB001FB
:101E30001124600F711D812F0E94430A64E070E03D
:101E4000812FDF91CF911F910F91FF90EF900C9414
:101E5000B70A623008F4B3CE8981E0E88E9F900122
:101E600011248881820F932F911D009729F0909360
:101E7000020180930101A3CE81E090E0F8CF6230AF
:101E800008F49DCE698170E0123091F08A81F0E80B
:101E90008F9FC0011124682B792B133049F08B815F
:101EA00090E090E4899F902D88271124682B792B4E
:101EB0008881DF91CF911F910F91FF90EF900C944B
:101EC000640880EF0E9401018CE60E940101CEEFC0
:101ED00084EF8C0F883020F582E00E9401018AE0B7
:101EE0000E9401018DEF8C0F8230E0F089EF8C0FA2
:101EF0008330F0F417C0C23158F780E00E9401012E
:101F000081E00E9401018BE00E94010181E00E94BA
:101F1000010181E00E94010181E00E940101D8CF0E
:101F2000C13001F783E00E94010188E00E940101B5
:101F3000C23130F484E00E9401018EE00E94010170
:101F400080EF8C0F823030F486E00E94010181E046
:101F50000E9401018FE70E940101CF5FC43159F651
:101F600087EFDF91CF911F910F91FF90EF900C942D
:101F70000101662309F423CEC88180EF0E9401018C
:101F80008EE60E9401018C2F0E940101C63140F7AC
:101F9000D0E0FE01ED57FB4F80810E940101CC0F84
:101FA000DD1F8E0107561B4FF80180818F770E943D
:101FB0000101F801808191819C012078232B39F067
:101FC000880F892F881F990B8F770E940101C756B0
:101FD000DB4F888199819C012227307C232B09F4D7
:101FE000BFCF990F880B990F982F881F8F770E946A
:101FF0000101B6CF80EF0E9401018AE60E94010133
:10200000C2EF8FE7C83008F48C2F0E940101CF5F28
:10201000C830B9F7A5CF1F920F920FB60F921124B7
:102020002F933F938F939F93AF93BF9380910B0315
:1020300090910C03A0910D03B0910E0330910A030F
:1020400023E0230F2D3758F50196A11DB11D2093D4
:102050000A0380930B0390930C03A0930D03B0939A
:102060000E0380910F0390911003A0911103B09182
:1020700012030196A11DB11D80930F0390931003CD
:10208000A0931103B0931203BF91AF919F918F91D1
:102090003F912F910F900FBE0F901F90189526E83B
:1020A000230F0296A11DB11DD2CF1F920F920FB622
:1020B0000F9211242F933F934F935F936F937F93CE
:1020C0008F939F93AF93BF93EF93FF9383E693E038
:1020D0000E94D702FF91EF91BF91AF919F918F9195
:1020E0007F916F915F914F913F912F910F900FBE14
:1020F0000F901F9018951F920F920FB60F921124F8
:102100002F938F939F93EF93FF93E0917303F0913D
:1021100074038081E0917903F0917A0382FD1BC002
:10212000908180917C038F5F8F7320917D03821754
:1021300041F0E0917C03F0E0ED59FC4F958F8093E6
:102140007C03FF91EF919F918F912F910F900FBE84
:102150000F901F9018958081F4CF1F920F920FB6A9
:102160000F9211240F900FBE0F901F9018951F9281
:102170000F920FB60F9211242F933F934F935F93BB
:102180006F937F938F939F93AF93BF93EF93FF933F
:102190008091B900887F803609F44AC0F0F5883212
:1021A00009F4A7C018F5803109F49BC0B8F488235E
:1021B00009F4F9C0883009F494C0FF91EF91BF9100
:1021C000AF919F918F917F916F915F914F913F91CF
:1021D0002F910F900FBE0F901F901895883109F422
:1021E00088C0803251F78093370314C0803409F4DB
:1021F0009DC040F48033B9F38833F9F680933703F8
:1022000085ECB0C0803509F485C0883509F496C0E6
:10221000883499F60E947F0AD0CF883909F48CC09F
:1022200038F5883729F050F4883611F0803729F6D0
:1022300083E0809339031092C30257C0883809F4B1
:102240007BC0803919F0803809F0B7CF8091C30284
:10225000803208F071C0E091C30281E08E0F80935C
:10226000C3028091BB00F0E0ED55FD4F80833DC07F
:10227000803B39F0E0F4803A09F479C0883A09F0FB
:102280009CCF84E0809339031092A00210929F02A9
:10229000E0919D02F0919E02099580919F0281112B
:1022A0000FC081E080939F0210927D0209C0803CA4
:1022B00009F4A6CF883C09F4A3CF883B09F07DCF71
:1022C000E091A00281E08E0F8093A002F0E0E3583D
:1022D000FD4F80818093BB009091A00280919F026E
:1022E00029C0809114038093BB0085EC8093BC00CF
:1022F00064CF9091360380913503981758F5E0919B
:10230000360381E08E0F80933603F0E0EB5EFC4FE6
:102310008081E9CFE091360381E08E0F8093360310
:102320008091BB00F0E0EB5EFC4F80839091360320
:10233000809135039817C8F285E8D8CFE09136032D
:1023400081E08E0F809336038091BB00F0E0EB5E5E
:10235000FC4F80838091380381115CCF81E08093B2
:10236000130384EA8093BC001092390326CF85ECD6
:102370008093BC00109239038091C302803230F404
:10238000E091C302F0E0ED55FD4F10826091C30271
:1023900070E0E091A102F091A20283EA92E0099537
:1023A0001092C3020ACF1092370334CF1F920F92BC
:1023B0000FB60F9211242F933F934F935F936F9318
:1023C0007F938F939F93AF93BF93CF93DF93EF93BD
:1023D000FF9380915902C091F604D0E087FF24C09A
:1023E0001092850010928400809159028F5F809333
:1023F000590280915902082E000C990B8C179D07E9
:1024000024F4809159028C30C4F180918400909121
:102410008500049680349C4908F47AC08091840039
:1024200090918500049676C080915902082E000C88
:10243000990B8C179D07C4F6E09159028E2FEE0F71
:10244000990BFC01EE0FFF1FE80FF91FEE52FB4F37
:10245000808186FFC9CFE09159028E2FEE0F990B34
:10246000FC01EE0FFF1FE80FF91FEE52FB4F8081BA
:1024700060E08F730E945D01B7CF2091840030919E
:102480008500E09159028E2FEE0F990BFC01EE0FA3
:10249000FF1FE80FF91FEE52FB4F81819281820FDF
:1024A000931F9093890080938800E09159028E2FAA
:1024B000EE0F990BFC01EE0FFF1FE80FF91FEE5214
:1024C000FB4F808186FF11C0E09159028E2FEE0FE5
:1024D000990BFC01EE0FFF1FE80FF91FEE52FB4FA7
:1024E000808161E08F730E945D01FF91EF91DF9128
:1024F000CF91BF91AF919F918F917F916F915F919C
:102500004F913F912F910F900FBE0F901F901895F4
:1025100080E49CE990938900809388008FEF8093FA
:102520005902E3CF109266031092650348EE53E020
:1025300060E070E040936703509368036093690321
:1025400070936A038DE091E090936403809363033A
:1025500085EC90E09093700380936F0384EC90E09F
:10256000909372038093710380EC90E090937403D6
:102570008093730381EC90E09093760380937503CE
:1025800082EC90E0909378038093770386EC90E060
:1025900090937A038093790310927C0310927D03C9
:1025A00010927E0310927F0380E094E01092410429
:1025B00010924004909344048093430420E430E05C
:1025C0003093460420934504109247041092480427
:1025D00010924A041092490410924B0410924D0438
:1025E00010924C0410924F0410924E041092510419
:1025F00010925004109253041092520410925504F9
:1026000010925404109257041092560410925904D8
:102610001092580410925F0410925E0410926104AC
:102620001092600410926304109262041092650488
:102630001092640410927304109272041092420477
:102640001092800410928204109281041092C504AA
:1026500027E830E0309367042093660421E930E0F6
:1026600030936904209368042BE930E030936B04C5
:1026700020936A0425EA30E030936D0420936C04C3
:102680002FEA30E030936F0420936E0429EB30E0A2
:10269000309371042093700423EC30E03093750480
:1026A0002093740424EC30E0309377042093760474
:1026B00026E235E0309379042093780490935B040C
:1026C00080935A0422E532E030937B0420937A040D
:1026D00090935D0480935C048FEC90E090937D0474
:1026E00080937C041092C9041092C8044093CA04D9
:1026F0005093CB046093CC047093CD048FE191E0B0
:102700009093C7048093C604E7EFF4E02FEF48EB03
:102710005BE08091F6048C30B8F491E0980F9093D0
:10272000F604808390E0DC01AA0FBB1FA80FB91F3D
:10273000AE52BB4F12965C934E931197339685E041
:10274000EB31F80731F708952083F8CF789484B5FA
:10275000826084BD84B5816084BD85B5826085BD9D
:1027600085B5816085BD80916E00816080936E002B
:10277000109281008091810082608093810080911D
:1027800081008160809381008091800081608093CE
:1027900080008091B10084608093B1008091B0008E
:1027A00081608093B00080917A00846080937A0089
:1027B00080917A00826080937A0080917A008160B3
:1027C00080937A0080917A00806880937A001092DA
:1027D000C10085E1809380048091810490918204FE
:1027E0000E948818C0918004D0E0CE0101960E941A
:1027F000EC179093820480938104FC01EC0FFD1F81
:10280000108212E0DC011C9325E011962C93AE019E
:10281000425051096AED71E002960E94111984E656
:1028200098E09093D1028093D00288EB97E0909348
:10283000CF028093CE028BE897E09093CD028093F5
:10284000CC0289ED99E09093CB028093CA0287EB8A
:102850009AE09093C9028093C80282E899E090932D
:10286000C7028093C60282EA9DE09093D3028093D0
:10287000D20286E19CE09093D5028093D402E0914D
:102880007303F09174031083E0917303F091740368
:102890001082E0916F03F09170031082E091710358
:1028A000F091720380E1808310927B03E0917703C3
:1028B000F091780386E08083E0917503F0917603D0
:1028C000808180618083E0917503F091760380813F
:1028D00088608083E0917503F09176038081806841
:1028E0008083E0917503F091760380818F7D8083F2
:1028F0008091C50481114FC061E08DE00E94A90163
:1029000062ED70E080E090E00E941F0261E08DE0E7
:102910000E945D0168E270E080E090E00E941F028A
:1029200060E08DE00E945D0162ED70E080E090E08B
:102930000E941F0261E08DE00E945D0168E270E08C
:1029400080E090E00E941F0260E08DE00E945D0147
:102950006AEF70E080E090E00E941F02C5E062ED47
:1029600070E080E090E00E941F0261E08DE00E9434
:102970005D0168E270E080E090E00E941F0260E08C
:102980008DE00E945D01C15051F76DE770E080E07D
:1029900090E00E941F0283E693E090937F0480936F
:1029A0007E04909341048093400480E494E00E946C
:1029B000D70080E094E00E94B2040E94160C25E04B
:1029C000D22EC0E0D0E0CC24C39402E010E0EE248C
:1029D000E394F12C8091D902882349F069B1809168
:1029E000D60268236C7F40E080E00E9497098091C6
:1029F000DA02882379F063B186B16F73B0E48B9FFC
:102A0000C0011124682B8091D702682340E081E047
:102A10000E9497098091DB02882359F066B180916A
:102A2000D8028F7066956695682340E082E00E9428
:102A3000970980917E0490917F04DC01ED91FC91D7
:102A40000084F185E02D0995892B09F4CEC1809190
:102A50007E0490917F04DC01ED91FC910284F3856A
:102A6000E02D09959C018F3F980719F3982F8091CD
:102A70004B04882309F492C0973F09F07EC010925E
:102A80004B04A0914304B09144046C916137C1F1AF
:102A9000693709F05CC0E0917804F09179043097CF
:102AA00041F280914C0490914D048330910560F483
:102AB00030E020E050E040E070E060E080915A04B7
:102AC00090915B040995B5CFBD016D5F7F4F039772
:102AD0000E943E01BC016D5F7F4F80E00E940E01AD
:102AE000E0914304F09144049F012D5F3F4F4281E8
:102AF00050E0618170E0E0917804F0917904DECFDC
:102B00008091740490917504892B09F492CFBD01D2
:102B10006F5F7F4F80914C0490914D0401970E940C
:102B20003E01BC016F5F7F4F80E00E940E0160910B
:102B30004304709144046F5F7F4FE0917404F091FF
:102B400075048091600490916104099572CFE091C1
:102B50007604F0917704309709F46BCF9D012F5FD5
:102B60003F4F40914C0450914D0441505109809188
:102B700062049091630409955CCF60914C0470915C
:102B80004D04822F0E940E0180914C0490914D04BF
:102B9000019690934D0480934C044BCF609149046F
:102BA00070914A046115710509F4B1C027FDAFC0E9
:102BB0006150710970934A0460934904822F0E9406
:102BC0000E018091490490914A04892B09F031CF7C
:102BD00080914704882309F42CCF803D09F483C0F9
:102BE00040F4803949F1803C09F469C010924704EF
:102BF00020CF843FE1F1853F09F44DC0803EB1F71D
:102C0000E0916604F0916704309781F3A09143044A
:102C1000B09144044C9120E8429FC00111241196C8
:102C20004C91480F592F511D6091480480914E04DA
:102C300090914F040995DACFE0916804F09169040E
:102C40003097A1F2A0914304B09144044C9120E844
:102C5000429FC001112411964C91480F592F511DCC
:102C6000609148048091500490915104E3CFE09129
:102C70006E04F0916F04309709F4B8CFA09143042B
:102C8000B09144044C9150E011966C91809156049F
:102C900090915704CFCFE0917004F0917104309778
:102CA00009F4A4CFA0914304B09144044C9150E0A6
:102CB00011966C918091580490915904BBCFE0918A
:102CC0006A04F0916B04309709F490CFA09143040B
:102CD000B09144044C9150E06091480480915204BA
:102CE00090915304A7CFE0916C04F0916D0430975C
:102CF00009F47CCFA0914304B09144044C9150E07E
:102D000060914804809154049091550493CF903F72
:102D100030F4822F8F7080934804922F907F903FE1
:102D2000F1F190F4903CB1F150F4903909F081CE7A
:102D300010934A0400934904909347047ACE903D3F
:102D400049F1903EA9F375CE993F09F442C028F4A9
:102D50008CE0890F823060F36CCE9F3F09F069CE22
:102D600010924A04109249041092470410924804A9
:102D700090E080E02091450430914604821793074B
:102D8000A8F4E0914304F0914404E80FF91F108285
:102D90000196F0CFF0924A04E0924904CDCFC09260
:102DA0004B0410924D0410924C0443CE10924B04ED
:102DB00010924D0410924C04E0917C04F0917D043B
:102DC0008091640490916504309709F432CE09959E
:102DD00030CEE0917A04F0917B04309709F429CE4B
:102DE00080915C0490915D04F2CF8FB7F89480904D
:102DF0000B0390900C03A0900D03B0900E038FBFB7
:102E00008091060390910703A0910803B0910903F4
:102E1000409101015091020170E060E0881A990A26
:102E2000AA0ABB0A481559056A057B0508F054C073
:102E3000840F951FA61FB71F809306039093070367
:102E4000A0930803B093090380E0882E84E0982EB5
:102E500092EFB92E87E08B15C8F0F401ED57FF4FC4
:102E60008081823099F480910403909105030B2CAA
:102E700002C0959587950A94E2F780FF07C08B2DD5
:102E80000E94E501BC018B2D0E940504B394AFEFB5
:102E90008A1A9A0AB8E0BB12DDCF8091000187FD43
:102EA0001BC0B12C2B2D30E080910001082E000CAE
:102EB000990B8217930784F0D29EF001D39EF00DF8
:102EC0001124E452FD4F618172812481438180810C
:102ED0000E94600CB394E6CF209709F47BCD0E944A
:102EE000C302882309F476CD0E94000073CD052E1D
:102EF00097FB1EF400940E948E1757FD07D00E9486
:102F0000A91707FC03D04EF40C948E1750954095EA
:102F1000309521953F4F4F4F5F4F08959095809585
:102F2000709561957F4F8F4F9F4F08950E94CB17EB
:102F3000A59F900DB49F900DA49F800D911D11240D
:102F40000895B7FF0C9496170E949617821B930B57
:102F50000895A1E21A2EAA1BBB1BFD010DC0AA1FDA
:102F6000BB1FEE1FFF1FA217B307E407F50720F0F2
:102F7000A21BB30BE40BF50B661F771F881F991F6D
:102F80001A9469F760957095809590959B01AC01B6
:102F9000BD01CF010895A29FB001B39FC001A39FBF
:102FA000700D811D1124911DB29F700D811D112482
:102FB000911D0895991B79E004C0991F961708F098
:102FC000961B881F7A95C9F780950895EE0FFF1F0D
:102FD0000590F491E02D09940F931F93CF93DF9305
:102FE0008230910510F482E090E0E0911D05F091AF
:102FF0001E0530E020E0B0E0A0E0309799F4211504
:10300000310509F44AC0281B390B24303105D8F5A5
:103010008A819B816115710589F1FB01938382830C
:10302000FE0111C040815181028113814817590767
:10303000E0F04817590799F4109761F012960C9335
:10304000129713961C933296CF01DF91CF911F9167
:103050000F91089500931D0510931E05F4CF2115BF
:10306000310551F04217530738F0A901DB019A01ED
:10307000BD01DF01F801C1CFEF01F9CF90931E052B
:1030800080931D05CDCFFE01E20FF31F8193919335
:103090002250310939832883D7CF20911B053091E5
:1030A0001C05232B41F4209105013091060130933A
:1030B0001C0520931B05209103013091040121156B
:1030C000310541F42DB73EB74091070150910801F9
:1030D000241B350BE0911B05F0911C05E217F3074B
:1030E000A0F42E1B3F0B2817390778F0AC014E5F78
:1030F0005F4F2417350748F04E0F5F1F50931C0594
:1031000040931B05819391939FCFF0E0E0E09CCF2B
:10311000CF93DF930097E9F0FC013297138212827C
:10312000A0911D05B0911E05ED0130E020E0109743
:10313000A1F420813181820F931F20911B053091D2
:103140001C052817390709F061C0F0931C05E093AE
:103150001B05DF91CF910895EA01CE17DF07E8F54F
:103160004A815B819E0141155105B1F7E901FB835D
:10317000EA8349915991C40FD51FEC17FD0761F4FB
:10318000808191810296840F951FE901998388833C
:10319000828193819B838A83F0E0E0E012968D9197
:1031A0009C9113970097B9F52D913C911197CD0102
:1031B0000296820F931F20911B0530911C05281742
:1031C000390739F6309751F510921E0510921D05FA
:1031D000B0931C05A0931B05BCCFD383C283408151
:1031E0005181840F951FC817D90761F44E5F5F4F57
:1031F00088819981480F591F518340838A819B811F
:10320000938382832115310509F0B0CFF0931E0519
:10321000E0931D059ECFFD01DC01C0CF1382128219
:10322000D7CFFB01DC014150504048F001900D9296
:103230000020C9F701C01D9241505040E0F70895A9
:04324000F894FFCF30
:10324400FF130000001F05800000000000F9025970
:103254000286024603B7029502A90200000000DAC2
:1032640006AD0609078306A606930684064D617813
:1032740020736572766F732061747461636865642A
:1032840000556E6B6E6F776E2070696E206D6F6483
:1032940065004932433A20546F6F206D616E792086
:1032A4006279746573207265636569766564004943
:1032B40032433A20546F6F206665772062797465D3
:1032C400732072656365697665640031302D6269C7
:1032D400742061646472657373696E67206E6F74C1
:1032E40020737570706F7274656400746F6F206DF5
:1032F400616E79207175657269657300433A5C6526
:10330400645C61726475696E6F5C5374616E646150
:1033140072644669726D6174615C5374616E646158
:0E33240072644669726D6174612E696E6F008D
:00000001FF
